:02000000802E50
:030003000200DB1D
:03000B000200DE12
:030023000200FDDB
:1000300075815F7598F0758921758DFD758BFDD281
:100040008E758C3C758AB0D2AFD2ACD29DD2A8D27C
:1000500088D2A975400074007A0078007B00754151
:100060000012006912008D80F8AA41E54075F00A7F
:1000700084A9F075F00A848A507551107552107574
:100080005310755410F55585F056895722C083C01A
:1000900082C0D0C0E078507530FE7580FFD2A600D7
:1000A000C2A6900122E693F580D2A500C2A5E53054
:1000B000F580D2A600C2A608E53030E70523F5306A
:1000C000019A758000D2A500C2A57580FFD2A60056
:1000D000C2A6D0E0D0D0D082D08322B28C32C0E091
:1000E0000BBB140F7B001200F60541E541B402037F
:1000F000754100D0E032D29BE541F59922C0E03055
:100100009904C2998009E599F540120112C298D06C
:10011000E032C2A2E54075F00284F590D2A300C29D
:10012000A3223F065B4F666D7D077F6F777C395E4C
:10013000797100763840C000C00178017900D9FE9D
:07014000D8FAD001D0002223
:00000001FF
