:03000000020103F7
:0300030002017A7D
:1001000075812FD2AFD2A8D288908FFFE0907FFF69
:10011000E080F67F0512019112012612012F1201D3
:100120004C12015780F27580117F14120191227CCC
:10013000047580017F031201917580117F03120104
:1001400091DCEE7580217F0A12019122900109E075
:10015000F07F14120191227C04900109E0F07F03EA
:10016000120191900109E0F07F03120191DCEA9005
:100170000109E0F07F0A12019122C080C0079001BE
:1001800009E0F07F64120191D007D080E580F5800E
:1001900032C005C0047CC87DF8DDFEDCFADFF6D095
:0401A00004D0052260
:00000001FF
