:03000000020103F7
:0300030002016E89
:1001000075812FD2AFD2A8D288907FFF7409F07F7B
:100110000512018312012212012B12014812015112
:1001200080F27411F07F14120183227C047401F0B8
:100130007F031201837411F07F03120183DCEE74DC
:1001400021F07F0A12018322740AF07F14120183C6
:10015000227C047408F07F03120183740AF07F0389
:10016000120183DCEE740CF07F0A12018322C0803E
:10017000C0077409F07F64120183D007D080E58046
:10018000F58032C005C0047CC87DF8DDFEDCFADFF6
:06019000F6D004D00522A8
:00000001FF
