:02000000802E50
:030003000200CB2D
:03000B0002005B95
:030013000200CE1A
:10003000758901D288D28AE4F540F541F542F5434D
:10004000F544F545F546D2A9D2A8D2AAD2AF758C0F
:100050003C758AB0C28C1200D880FBC0D0C0E0755D
:100060008C3C758AB00546E546B4145A7546007452
:10007000012540F540B40A4E754000E5412401F5E4
:1000800041B40642754100E5422401F542B40A3606
:10009000754200E5432401F543B4062A754300E5A3
:1000A000442401F544E545B4020EE544B404097561
:1000B00044007545000200C6E544B40A09754400D1
:1000C000E5452401F545D0E0D0D032B28C32D0E005
:1000D000D0E0E4C0E0C0E03279407EBF7D0790010F
:1000E00004DD0122E793758000D2A6F580C2A6093F
:1000F000D2A78E80C2A7EE03FE1200FE80E37B2013
:0E01000000DBFD223F065B4F666D7D077F6FC3
:00000001FF
