:03000000020030CB
:1000300075815F90020078FE7B057901E5901200E2
:100040009220E0068008090B80F212005222120072
:1000500058227A0812007A227A0812005E22C0E042
:1000600074FEF5A00000C0E0E993F5800000D0E048
:100070000923120092DAEBD0E022C0E0747FF5A0F1
:100080000000C0E0EB93F5800000D0E0120092D0B9
:10009000E022C006C0077E017F00DFFEDEFAD00747
:0300A000D0062265
:1002000040767938383F40403F065B4F666D7D074A
:0D0210007F6F403F065B4F666D7D077F6F7F
:00000001FF
